:020000040800F2
:100000000000022031520008654F00086B4F0008C5
:10001000714F0008774F00087D4F00080000000076
:10002000000000000000000000000000834F0008F6
:10003000914F0008000000009F4F0008AD4F0008DE
:100040008152000881520008815200088152000844
:100050008152000881520008815200088152000834
:100060008152000881520008815200088152000824
:100070008152000881520008815200088152000814
:10008000B94F0008CD4F0008815200080000000061
:100090000000000000000000000000008152000885
:1000A000E14F0008F54F0008095000081D500008F6
:1000B0008152000831500008815200084550000864
:1000C00059500008815200088152000881520008EE
:1000D00081520008815200086D50000800000000A5
:1000E000815200088152000881520008000000007F
:1000F0000000000000000000000000008152000825
:10010000000000008152000881520008815200085E
:1001100000000000000000000000000000000000DF
:100120008152000881520008815200088152000863
:1001300081520008000000000000000000000000E4
:1001400000000000000000000000000081520008D4
:100150008152000881520008815200088152000833
:1001600081520008815200080000000000000000D9
:10017000000000000000000000000000000000007F
:100180000000000081520008000000000000000094
:080190008152000881520008B1
:1001A00010B5054C237833B9044B13B10448AFF3B1
:1001B00000800123237010BDDC010020000000003E
:1001C00048F3000808B5034B1BB103490348AFF3DC
:1001D000008008BD00000000E001002048F3000896
:1001E000034613F8012B002AFBD1181A0138704777
:1001F00001F0FF01102A2BDB10F0070F08D010F8D8
:10020000013B013A8B422DD010F0070F42B3F6D1DB
:10021000F0B441EA012141EA014122F007047FF0F4
:1002200000070023F0E80256083C85EA010586EA4B
:10023000010685FA47F5A3FA87F586FA47F6A5FA87
:1002400087F68EB9EED1F0BC01F0FF0102F0070293
:1002500032B110F8013B013A83EA010313B1F8D13E
:100260000020704701387047002D06BF354603381F
:10027000073815F0010F07D1013015F4807F02BF58
:10028000013015F4C03F0130F0BC0138704700BFA9
:1002900081F0004102E000BF83F0004330B54FEA37
:1002A00041044FEA430594EA050F08BF90EA020FA4
:1002B0001FBF54EA000C55EA020C7FEA645C7FEA37
:1002C000655C00F0E2804FEA5454D4EB5555B8BF5A
:1002D0006D420CDD2C4480EA020281EA030382EACB
:1002E000000083EA010180EA020281EA0303362D5D
:1002F00088BF30BD11F0004F4FEA01314FF4801C30
:100300004CEA113102D0404261EB410113F0004F41
:100310004FEA03334CEA133302D0524263EB4303F8
:1003200094EA050F00F0A780A4F10104D5F1200E96
:100330000DDB02FA0EFC22FA05F2801841F10001F1
:1003400003FA0EF2801843FA05F359410EE0A5F1C5
:1003500020050EF1200E012A03FA0EFC28BF4CF0F6
:10036000020C43FA05F3C01851EBE37101F00045AC
:1003700007D54FF0000EDCF1000C7EEB00006EEBB9
:100380000101B1F5801F1BD3B1F5001F0CD3490843
:100390005FEA30004FEA3C0C04F101044FEA44529A
:1003A00012F5800F80F09A80BCF1004F08BF5FEA21
:1003B000500C50F1000041EB045141EA050130BD01
:1003C0005FEA4C0C404141EB0101013C28BFB1F513
:1003D000801FE9D291F0000F04BF01460020B1FA5E
:1003E00081F308BF2033A3F10B03B3F120020CDA31
:1003F0000C3208DD02F1140CC2F10C0201FA0CF00F
:1004000021FA02F10CE002F11402D8BFC2F1200C73
:1004100001FA02F120FA0CFCDCBF41EA0C01904029
:10042000E41AA2BF01EB0451294330BD6FEA040472
:100430001F3C1CDA0C340EDC04F11404C4F120025D
:1004400020FA04F001FA02F340EA030021FA04F36F
:1004500045EA030130BDC4F10C04C4F1200220FAC6
:1004600002F001FA04F340EA0300294630BD21FA04
:1004700004F0294630BD94F0000F83F4801306BFCA
:1004800081F480110134013D4EE77FEA645C18BFBE
:100490007FEA655C29D094EA050F08BF90EA020F55
:1004A00005D054EA000C04BF1946104630BD91EA4D
:1004B000030F1EBF0021002030BD5FEA545C05D150
:1004C0004000494128BF41F0004130BD14F580048F
:1004D0003CBF01F5801130BD01F0004545F0FE4103
:1004E00041F470014FF0000030BD7FEA645C1ABF38
:1004F000194610467FEA655C1CBF0B46024650EA6F
:10050000013406BF52EA033591EA030F41F400219A
:1005100030BD00BF90F0000F04BF0021704730B520
:100520004FF4806404F132044FF000054FF00001F5
:1005300050E700BF90F0000F04BF0021704730B5B6
:100540004FF4806404F1320410F0004548BF40428B
:100550004FF000013EE700BF42004FEAE2014FEAE0
:1005600031014FEA02701FBF12F07F4393F07F4FBB
:1005700081F06051704732F07F4208BF704793F0BE
:100580007F4F04BF41F40021704730B54FF46074D1
:1005900001F0004521F000411CE700BF50EA0102D4
:1005A00008BF704730B54FF000050AE050EA01027D
:1005B00008BF704730B511F0004502D5404261EBED
:1005C00041014FF4806404F132045FEA915C3FF42E
:1005D000D8AE4FF003025FEADC0C18BF03325FEACB
:1005E000DC0C18BF033202EBDC02C2F1200300FA7C
:1005F00003FC20FA02F001FA03FE40EA0E0021FAA1
:1006000002F11444BDE600BF70B54FF0FF0C4CF48E
:10061000E06C1CEA11541DBF1CEA135594EA0C0F40
:1006200095EA0C0F00F0DEF82C4481EA030621EA7B
:100630004C5123EA4C5350EA013518BF52EA0335B6
:1006400041F4801143F4801338D0A0FB02CE4FF068
:100650000005E1FB02E506F00042E0FB03E54FF098
:100660000006E1FB03569CF0000F18BF4EF0010E90
:10067000A4F1FF04B6F5007F64F5407404D25FEA8C
:100680004E0E6D4146EB060642EAC62141EA55513F
:100690004FEAC52040EA5E504FEACE2EB4F1FD0C81
:1006A00088BFBCF5E06F1ED8BEF1004F08BF5FEAFF
:1006B000500E50F1000041EB045170BD06F00046B1
:1006C00046EA010140EA020081EA0301B4EB5C045E
:1006D000C2BFD4EB0C0541EA045170BD41F4801156
:1006E0004FF0000E013C00F3AB8014F1360FDEBF7B
:1006F000002001F0004170BDC4F10004203C35DA57
:100700000C341BDC04F11404C4F1200500FA05F3D9
:1007100020FA04F001FA05F240EA020001F000427A
:1007200021F0004110EBD37021FA04F642EB0601F0
:100730005EEA430E08BF20EAD37070BDC4F10C041A
:10074000C4F1200500FA04F320FA05F001FA04F2DE
:1007500040EA020001F0004110EBD37041F10001CA
:100760005EEA430E08BF20EAD37070BDC4F12005D5
:1007700000FA05F24EEA020E20FA04F301FA05F23D
:1007800043EA020321FA04F001F0004121FA04F2E5
:1007900020EA020000EBD3705EEA430E08BF20EAB5
:1007A000D37070BD94F0000F0FD101F000464000EF
:1007B00041EB010111F4801F08BF013CF7D041EA71
:1007C000060195F0000F18BF704703F00046520075
:1007D00043EB030313F4801F08BF013DF7D043EA46
:1007E0000603704794EA0C0F0CEA135518BF95EAFC
:1007F0000C0F0CD050EA410618BF52EA4306D1D183
:1008000081EA030101F000414FF0000070BD50EAA1
:10081000410606BF1046194652EA430619D094EA2B
:100820000C0F02D150EA013613D195EA0C0F05D115
:1008300052EA03361CBF104619460AD181EA030169
:1008400001F0004141F0FE4141F470014FF0000021
:1008500070BD41F0FE4141F4780170BD70B54FF0BC
:10086000FF0C4CF4E06C1CEA11541DBF1CEA13553C
:1008700094EA0C0F95EA0C0F00F0A7F8A4EB05041E
:1008800081EA030E52EA03354FEA013100F0888015
:100890004FEA03334FF0805545EA131343EA1263DE
:1008A0004FEA022245EA111545EA10654FEA002693
:1008B0000EF000419D4208BF964244F1FD0404F54C
:1008C000407402D25B084FEA3202B61A65EB0305A8
:1008D0005B084FEA32024FF480104FF4002CB6EB65
:1008E000020E75EB030E22BFB61A754640EA0C00E5
:1008F0005B084FEA3202B6EB020E75EB030E22BF25
:10090000B61A754640EA5C005B084FEA3202B6EB65
:10091000020E75EB030E22BFB61A754640EA9C0024
:100920005B084FEA3202B6EB020E75EB030E22BFF4
:10093000B61A754640EADC0055EA060E18D04FEAB2
:10094000051545EA16754FEA06164FEAC30343EA52
:1009500052734FEAC2025FEA1C1CC0D111F4801F1F
:100960000BD141EA00014FF000004FF0004CB6E718
:1009700011F4801F04BF01430020B4F1FD0C88BFB7
:10098000BCF5E06F3FF6AFAEB5EB030C04BFB6EBC2
:10099000020C5FEA500C50F1000041EB045170BDB5
:1009A0000EF0004E4EEA113114EB5C04C2BFD4EBE2
:1009B0000C0541EA045170BD41F480114FF0000E66
:1009C000013C90E645EA060E8DE60CEA135594EAE2
:1009D0000C0F08BF95EA0C0F3FF43BAF94EA0C0FE5
:1009E0000AD150EA01347FF434AF95EA0C0F7FF45A
:1009F00025AF104619462CE795EA0C0F06D152EAAE
:100A000003353FF4FDAE1046194622E750EA410691
:100A100018BF52EA43067FF4C5AE50EA41047FF4A2
:100A20000DAF52EA43057FF4EBAE12E74FF0FF3C07
:100A300006E000BF4FF0010C02E000BF4FF0010CD8
:100A40004DF804CD4FEA410C7FEA6C5C4FEA430C51
:100A500018BF7FEA6C5C1BD001B050EA410C0CBFA0
:100A600052EA430C91EA030F02BF90EA020F002002
:100A7000704710F1000F91EA030F58BF994208BF69
:100A800090422CBFD8176FEAE37040F00100704726
:100A90004FEA410C7FEA6C5C02D150EA013C07D17D
:100AA0004FEA430C7FEA6C5CD6D152EA033CD3D0C8
:100AB0005DF8040B704700BF8446104662468C46C2
:100AC0001946634600E000BF01B5FFF7B7FF0028F5
:100AD00048BF10F1000F01BD4DF808EDFFF7F4FF1E
:100AE0000CBF012000205DF808FB00BF4DF808EDA9
:100AF000FFF7EAFF34BF012000205DF808FB00BFCC
:100B00004DF808EDFFF7E0FF94BF012000205DF8ED
:100B100008FB00BF4DF808EDFFF7CEFF94BF0120A2
:100B200000205DF808FB00BF4DF808EDFFF7C4FF9B
:100B300034BF012000205DF808FB00BF4FEA410CE4
:100B40007FEA6C5C02D150EA013C0AD14FEA430CC7
:100B50007FEA6C5C02D152EA033C02D14FF0000004
:100B600070474FF0010070474FEA410212F5001242
:100B700015D211D56FF47873B3EB625212D94FEAE4
:100B8000C12343F0004343EA505311F0004F23FACE
:100B900002F018BF404270474FF00000704750EA23
:100BA000013005D111F0004008BF6FF000407047E0
:100BB0004FF00000704700BF4FEA4102B2F1E0433E
:100BC00024BFB3F5001CDCF1FE5C0DD901F0004C34
:100BD0004FEAC0024CEA5070B2F1004F40EB830084
:100BE00008BF20F00100704711F0804F21D113F1B0
:100BF0003872BCBF01F00040704741F480114FEAE9
:100C00005252C2F11802C2F1200C10FA0CF320FA71
:100C100002F018BF40F001004FEAC1234FEAD3238E
:100C200003FA0CFC40EA0C0023FA02F34FEA4303F8
:100C3000CCE77FEA625307D150EA01331EBF4FF081
:100C4000FE4040F44000704701F0004040F0FE409C
:100C500040F40000704700BF53B94AB9002908BFEB
:100C600000281CBF4FF0FF314FF0FF3000F074B987
:100C7000ADF1080C6DE904CE00F006F8DDF804E0F3
:100C8000DDE9022304B070472DE9F047089D0446D2
:100C90008E46002B4DD18A42944669D9B2FA82F22F
:100CA00052B101FA02F3C2F1200120FA01F10CFA6B
:100CB00002FC41EA030E94404FEA1C48210CBEFBA3
:100CC000F8F61FFA8CF708FB16E341EA034306FB2C
:100CD00007F199420AD91CEB030306F1FF3080F0BB
:100CE0001F81994240F21C81023E63445B1AA4B208
:100CF000B3FBF8F008FB103344EA034400FB07F7AA
:100D0000A7420AD91CEB040400F1FF3380F00A81EA
:100D1000A74240F207816444023840EA0640E41BDF
:100D200000261DB1D4400023C5E900433146BDE88B
:100D3000F0878B4209D9002D00F0EF800026C5E92D
:100D4000000130463146BDE8F087B3FA83F6002E45
:100D50004AD18B4202D3824200F2F980841A61EBBD
:100D6000030301209E46002DE0D0C5E9004EDDE7DB
:100D700002B9FFDEB2FA82F2002A40F09280A1EBC3
:100D80000C014FEA1C471FFA8CFE0126200CB1FB18
:100D9000F7F307FB131140EA01410EFB03F0884211
:100DA00008D91CEB010103F1FF3802D2884200F29E
:100DB000CB804346091AA4B2B1FBF7F007FB101130
:100DC00044EA01440EFB00FEA64508D91CEB0404CE
:100DD00000F1FF3102D2A64500F2BB800846A4EB29
:100DE0000E0440EA03409CE7C6F12007B34022FA14
:100DF00007FC4CEA030C20FA07F401FA06F31C4343
:100E0000F9404FEA1C4900FA06F3B1FBF9F8200C4F
:100E10001FFA8CFE09FB181140EA014108FB0EF095
:100E2000884202FA06F20BD91CEB010108F1FF3AE5
:100E300080F08880884240F28580A8F102086144F1
:100E4000091AA4B2B1FBF9F009FB101144EA0141FF
:100E500000FB0EFE8E4508D91CEB010100F1FF34AA
:100E60006CD28E456AD90238614440EA0840A0FB42
:100E70000294A1EB0E01A142C846A64656D353D018
:100E80005DB1B3EB080261EB0E0101FA07F722FA3C
:100E900006F3F1401F43C5E9007100263146BDE865
:100EA000F087C2F12003D8400CFA02FC21FA03F3C8
:100EB000914001434FEA1C471FFA8CFEB3FBF7F049
:100EC00007FB10360B0C43EA064300FB0EF69E426E
:100ED00004FA02F408D91CEB030300F1FF382FD207
:100EE0009E422DD9023863449B1B89B2B3FBF7F6AF
:100EF00007FB163341EA034106FB0EF38B4208D988
:100F00001CEB010106F1FF3816D28B4214D9023EC8
:100F10006144C91A46EA004638E72E46284605E7E6
:100F20000646E3E61846F8E64B45A9D2B9EB0208B7
:100F300064EB0C0E0138A3E74646EAE7204694E747
:100F40004046D1E7D0467BE7023B614432E730467A
:100F500009E76444023842E7704700BF80B582B0B9
:100F600000AF7860786800F011F80346002B05D0D8
:100F7000044808F07EFD044B00221A7000BF0837B9
:100F8000BD4680BDC00F0020F801002080B483B0B2
:100F900000AF7860034B1B7818460C37BD465DF8F0
:100FA000047B7047F801002080B582B000AF786004
:100FB0007B680C331946786800F0A9F97B6803F563
:100FC000B6631946786800F0A2F97B684FF000021A
:100FD0001A607B684FF000025A607B6800221A7228
:100FE0007B6800225A727B6818460837BD4680BD70
:100FF00080B582B000AF78607868FFF7AFFF7B689C
:1010000018460837BD4680BD80B582B000AF786015
:101010007868FFF7BBFF0A4808F0DEFC0346002BA8
:1010200014BF01230023DBB2002B01D0002303E017
:10103000044B01221A70012318460837BD4680BDB3
:10104000C00F0020F801002080B588B000AFF86024
:101050007A603B600B46FB720023FB753B68002BFC
:1010600006D07B68002B03D0FB7A63F07F03FB7212
:10107000A5233B76FB7A7B7607F118014FF0FF330F
:101080000322334808F024FD0346FB76FB7E002B49
:1010900001D0304B57E097F90B30002B52DAFB7D33
:1010A00083F05A03DB43DBB2FB75FA7DFB7A5340D6
:1010B000DBB2FB753B68DAB2FB7D5340DBB2FB75FC
:1010C0000023FB61FA693B689A420BD27A68FB699C
:1010D00013441A78FB7D5340DBB2FB75FB69013387
:1010E000FB61EFE73B68DBB2BB7507F116014FF020
:1010F000FF330122164808F0EBFC0346FB76FB7E2B
:10110000002B01D0134B1EE03B689AB24FF0FF3327
:1011100079680F4808F0DCFC0346FB76FB7E002B69
:1011200001D00C4B0FE007F117014FF0FF33012204
:10113000074808F0CDFC0346FB76FB7E002B01D070
:10114000044B00E0002318462037BD4680BD00BF99
:10115000C00F00200180008080B588B000AFF8602B
:10116000B9607A6004F0F4F8B8610023FB77BB68DB
:101170007B6104F0EDF80246BB69D31A7A689A42A3
:101180008CBF01230023DBB2002B39D004F0E0F840
:101190000246BB699A1A7B68134407F112010122C7
:1011A0001A4808F027FD0346FB74FB7C002B1FD177
:1011B000FB7F002B02D0012B04D00CE0BB7CA52BC5
:1011C00006D01CE0BB7C5A2B04D00023FB7716E032
:1011D00000BF00E000BFFB7F5A1CFA771A467B690C
:1011E0001344BA7C1A70FB7F072BC2D1002308E09E
:1011F000FB7C032B01D1064B03E0064B01E0B8E773
:10120000034B18462037BD4680BD00BFC00F0020ED
:10121000028000800180008080B584B000AF7860DB
:101220007868FFF7B3FE034683F00103DBB2002BBF
:1012300001D0074B07E00023002225217868FFF743
:1012400003FFF860FB6818461037BD4680BD00BF3D
:101250000180008080B588B000AFF8600B467A60EE
:10126000FB72F868FFF792FE034683F00103DBB2DE
:10127000002B01D01E4B36E0F868FFF7CDFFFB7A5C
:10128000002B01D0212300E02023FB77F97F0023EE
:101290000022F868FFF7D8FEB861BB69002B01DABD
:1012A000BB6920E007F110037A681946F868FFF778
:1012B00053FFB861BB69DB0FDBB2002B01D0BB6908
:1012C00011E0BB7D812B02D04FF080230BE07B8AA5
:1012D000BA8AC2F30D0212041343042B02D84FF052
:1012E000802300E0002318462037BD4680BD00BFA4
:1012F0000180008080B483B000AF78607B6803F524
:10130000B66318460C37BD465DF8047B704780B461
:1013100085B000AF786039600023FB60FB68002B6C
:101320000AD1FB689B003A6813444FF000021A6030
:10133000FB680133FB60F1E700BF1437BD465DF881
:10134000047B704780B483B000AF786039607A68FE
:101350003B6803F5B6739B0013441B6807EE903A95
:10136000B0EE670A0C37BD465DF8047B704780B469
:1013700085B000AFF860B9607A603B60BA683B68DE
:101380009A4201DD3B68BB60BA687B689A4201DA29
:101390007B68BB60BB6807EE903AF8EEE77AB0EE88
:1013A000670A1437BD465DF8047B704780B489B086
:1013B00000AF78600023FB61FB69B3F5AF7F70DCA1
:1013C0007A68FB6902339B00134404331B68BB61DA
:1013D000FB69033B7B61FB6903333B61FB69002BCA
:1013E00005D140F265137B6103233B6109E0FB6992
:1013F000B3F5AF7F05D140F25B137B614FF4B2735D
:101400003B617B69FB60FA683B699A423DDCFB68A3
:10141000BB60BB68002B04DABB6803F5B473BB6028
:1014200007E0BB68B3F5B47F03DDBB68A3F5B47315
:10143000BB60FB69002B04D1BB6840F2651293428C
:101440001ED0BB68002B1CDBBB68B3F5B47F18DC77
:101450007A68BB6802339B0013440433D3ED007AEF
:1014600097ED067AB4EEE77AF1EE10FA09DD7A68C4
:10147000BB6802339B00134404331B68BB6100E06C
:1014800000BFFB680133FB60BDE77A68FB6903F5C9
:10149000B6739B001344BA691A60FB690733FB619A
:1014A0008AE700BF2437BD465DF8047B7047000023
:1014B00080B58CB000AF7860396003F049FFB86246
:1014C00007F10C037B62002387F82F3003F040FF05
:1014D0000246BB6AD31A3B623A6A3B689A4294BF9F
:1014E00001230023DBB2002B00F0B18007F10B01D8
:1014F0003B680122584808F07DFB0346FB77FB7FE1
:10150000002B40F0A28097F82F30002B02D0012B47
:101510000CD017E0FB7A5B08BB77FA7ABB7F5340AD
:10152000DBB203F00103002B09D18FE0FB7A03F05B
:101530000103002B05D1002387F82F3086E000BF80
:1015400000E000BF97F82F305A1C87F82F201A466A
:101550007B6A1344FA7A1A7097F82F30052BB5D1AD
:10156000B7F80F309BB207EE903AB8EEE77AF1EE9B
:10157000006AC7EE267A7B68C3ED007AB7F80D30B3
:101580009BB25B089BB207EE903AB8EEE77ADFEDCC
:10159000336AC7EE267AFDEEE77A4FF4B473002281
:1015A00017EE901A7868FFF7E2FEF0EE407A7B685B
:1015B000C3ED017A3B7B9B08DAB27B681A723B7BF6
:1015C00003F00103002B14BF01230023DAB27B6870
:1015D0005A727B685B68BB617B681B687B61D7ED77
:1015E000067AF5EEC07AF1EE10FA29DBD7ED067A2D
:1015F0009FED1B7AF4EEC77AF1EE10FA20D8D7ED02
:10160000067AFDEEE77A17EE903A7A6802339B008D
:1016100013440433D3ED007A97ED057AB4EE677A7C
:10162000F1EE10FA0CD0D7ED067AFDEEE77A17EE60
:10163000903A7A6802339B00134404337A691A6043
:101640007868FFF7B3FE002302E000BF3EE7054BDA
:1016500018463037BD4680BDC00F002000008042D4
:101660000000B4430280008080B483B000AF786093
:101670007B68002BB8BF5B4218460C37BD465DF84F
:10168000047B704780B582B000AF87ED010A97ED0B
:10169000010A09F0A9FAF0EE407AB0EE670A0837BD
:1016A000BD4680BD80B483B000AF87ED010AD7EDA1
:1016B000017AF0EEE77AB0EE670A0C37BD465DF8C6
:1016C000047B704780B582B000AF87ED010A97EDCB
:1016D000010A09F0CDFAF0EE407AB0EE670A083759
:1016E000BD4680BD80B582B000AF87ED010A97EDA1
:1016F000010A09F003FBF0EE407AB0EE670A083702
:10170000BD4680BD80B483B000AF786039603B686F
:1017100018460C37BD465DF8047B704780B483B033
:1017200000AF78607B68B3F5007F05D24FF400729C
:101730007B68B2FBF3F300E0012318460C37BD468B
:101740005DF8047B704780B483B000AF7860396087
:101750007B683A689A607B6818460C37BD465DF82E
:10176000047B704780B483B000AF78607B689B686F
:101770001B685B6A1AB27B681A807B689B681B686F
:1017800000225A6200BF0C37BD465DF8047B7047EB
:1017900080B483B000AF78607B68B3F9003018463E
:1017A0000C37BD465DF8047B704780B582B000AF52
:1017B0007860786801F08BFC7B6818460837BD4676
:1017C00080BD80B582B000AF786039607B683968D1
:1017D000184601F0BCFC786800F06FF87B6818468A
:1017E0000837BD4680BD80B52DED028B84B000AFBB
:1017F000786087ED000A7B680221184601F0E4FC5E
:10180000034693ED007AD7ED007A27EE278A7B68AE
:101810000321184601F0D8FC034693ED007A7B685B
:10182000D3ED037A67EE277A38EE278A7B680421A6
:10183000184601F0C9FC034693ED007A7B68D3EDAE
:10184000047A67EE277A38EE278A7B6800211846EB
:1018500001F0BAFC034693ED007A7B68D3ED057A7C
:1018600067EE277A38EE678A7B680121184601F017
:10187000ABFC034693ED007A7B68D3ED067A67EE06
:10188000277A78EE677AC7ED037A7B68DA687B6837
:101890001A617B683A68DA607B685A697B689A618A
:1018A0007B68FA685A61FB6807EE903AB0EE670A07
:1018B0001037BD46BDEC028B80BD80B483B000AF55
:1018C00078607B684FF00002DA607B684FF00002BE
:1018D0001A617B684FF000025A617B684FF000028A
:1018E0009A6100BF0C37BD465DF8047B704780B538
:1018F00084B000AFF86087ED000BF868FEF71AFEC1
:1019000002460B4697ED001B43EC102B09F048FAFA
:10191000B0EE407AF0EE607AB0EE470AF0EE670A79
:101920001037BD4680BD00002DE9B04394B000AF34
:10193000F86087ED020AC7ED010AF7EE006A97ED3D
:10194000017AC6EE877AC7ED137AB868FEF704FE0F
:10195000ADA3D3E90023FEF757FE02460B4610461F
:101960001946FFF729F90346BB64022097ED120AD6
:1019700001F05BFC59EC108B9FED9F0B0220FFF7F1
:10198000B6FF51EC100B02460B46FEF787FC0246F1
:101990000B4614461D46B86CFEF7DEFD02460B46AC
:1019A00020462946FEF730FE02460B4614461D46E9
:1019B000F86CFEF7D1FD02460B4620462946FEF79D
:1019C0004DFF02460B4640464946FEF767FC02467D
:1019D0000B4614461D46022097ED130A01F025FC24
:1019E00053EC102B4FF000008549FEF737FF0246FD
:1019F0000B4620462946FEF751FC02460B46104690
:101A00001946FFF7D9F803467B64022097ED120AC6
:101A100001F00BFC51EC100B02460B46FEF73EFCAE
:101A200002460B4614461D46022097ED130A01F0AC
:101A3000FCFB53EC102B4FF000007249FEF70EFF39
:101A400002460B4620462946FEF726FC02460B4678
:101A500014461D46786CFEF77FFD02460B46204675
:101A60002946FEF7FBFE02460B4610461946FFF7D5
:101A7000A3F803463B64022097ED120A01F0D5FB60
:101A800059EC108B9FED5C0B0220FFF730FF51ECFF
:101A9000100B02460B46FEF701FC02460B461446AD
:101AA0001D46B86CFEF758FD02460B4620462946F7
:101AB000FEF7AAFD02460B4614461D46F86CFEF7DB
:101AC0004BFD02460B4620462946FEF7C7FE02465E
:101AD0000B4640464946FEF7DFFB02460B461446DE
:101AE0001D46022097ED130A01F09FFB53EC102BCB
:101AF0004FF000004249FEF7B1FE02460B46204679
:101B00002946FEF7CBFB02460B4614461D46786C71
:101B1000FEF722FD02460B4620462946FEF79EFEB2
:101B200002460B4610461946FFF746F80346FB638C
:101B3000022097ED120A01F078FB55EC104B786CFF
:101B4000FEF70AFD02460B4620462946FEF786FEB2
:101B500002460B4610461946FFF72EF80346BB63B4
:101B6000022097ED120A01F060FB51EC100B0246C7
:101B70000B46FEF793FB02460B4614461D46786C57
:101B8000FEF7EAFC02460B4620462946FEF766FEB3
:101B900002460B4610461946FFF70EF803467B63D4
:101BA000BB6B3B633B6CBB61FB6BFB61BB6B3B6229
:101BB0007B6B7B623B6BBB6207F118033B610523C8
:101BC0007B6107F12C03184601F075FA07F12C032D
:101BD00007F1100206CAF86801F006FB07F12C03B2
:101BE000184601F074FA00BFF8685037BD46BDE8EA
:101BF000B08300BFAFF30080000000000000E03FB2
:101C00000000104000002040182D4454FB211940D2
:101C100080B485B000AFF86087ED020AC7ED010A15
:101C200087ED001AFB68BA681A60FB687A685A6028
:101C3000FB683A689A60FB684FF00002DA60FB6864
:101C40004FF000021A61FB6818461437BD465DF874
:101C5000047B704780B487B000AFF86087ED020A5C
:101C6000C7ED010A97ED027AD7ED017A77EE677A30
:101C7000C7ED057AFB6893ED047AD7ED057A77EE28
:101C8000277AFB68C3ED047AFB68D3ED037A97EDFE
:101C9000057A77EE677AC7ED047AFB687A69DA60CD
:101CA000FB6893ED007AD7ED057A27EE277AFB687B
:101CB000D3ED016AFB68D3ED047A66EEA77A37EEBE
:101CC000277AFB68D3ED026AD7ED047A66EEA77A2D
:101CD00077EE277AB0EE670A1C37BD465DF8047BC5
:101CE000704700000000000080B592B000AFF860BF
:101CF00087ED000B4FF000026F4BC7E9102368A37C
:101D0000D3E90023C7E90E234FF000026B4BC7E96C
:101D10000C234FF000026A4BC7E90A2362A3D3E900
:101D20000023C7E908234FF00002664BC7E90623EA
:101D30004FF00002644BD7E90001FEF7E1FE0346D5
:101D4000002B15D0D7E91001FEF736FF0246FB68DD
:101D50001A60D7E90E01FEF72FFF0246FB685A60B2
:101D6000D7E90C01FEF728FF0246FB689A6090E075
:101D70004FA3D3E90023D7E90001FEF7CBFE0346CA
:101D8000002B15D0D7E90A01FEF716FF0246FB68C3
:101D90001A60D7E90801FEF70FFF0246FB685A6098
:101DA000D7E90601FEF708FF0246FB689A6070E07B
:101DB0004FF00002444BD7E90001FEF76DFA0246EE
:101DC0000B46104619464FF00002404BFEF746FD09
:101DD00002460B46C7E90423D7E91023D7E90A01D5
:101DE000FEF75AFA02460B4610461946D7E9042375
:101DF000FEF70AFC02460B4610461946D7E91023A7
:101E0000FEF74CFA02460B4610461946FEF7D4FE82
:101E10000246FB681A60D7E90E23D7E90801FEF7EE
:101E20003BFA02460B4610461946D7E90423FEF753
:101E3000EBFB02460B4610461946D7E90E23FEF788
:101E40002DFA02460B4610461946FEF7B5FE02462D
:101E5000FB685A60D7E90C23D7E90601FEF71CFAA4
:101E600002460B4610461946D7E90423FEF7CCFB81
:101E700002460B4610461946D7E90C23FEF70EFA28
:101E800002460B4610461946FEF796FE0246FB68D0
:101E90009A6000BF4837BD4680BD00BFAFF30080E9
:101EA0009A9999999999A93F9A9999999999B93F24
:101EB0000000000000C062400000344000001C40F0
:101EC0000000304000001840000049400000594028
:101ED00080B485B000AFF860B9607A60FA687B685A
:101EE0009A4201DD7B68FB60FA68BB689A4201DABE
:101EF000BB68FB60FB6818461437BD465DF8047B81
:101F0000704780B582B000AF78607B68184601F0FA
:101F1000EAF87B6818460837BD4680BD90B589B0A1
:101F200000AFF860B9607A60FB70FB68B96818466A
:101F3000FFF709FCFB680C33B1EE0C1ADFED140A55
:101F4000B3EE040A1846FFF763FEFB6803F12004B2
:101F500007F11403DFED0F0AB1EE040A1846FFF78C
:101F6000E3FC07F1140319462046FFF72AFC07F1AA
:101F70001403184601F0B7F8FB687A68DA63FA7858
:101F8000FB681A64FB6818462437BD4690BD00BF45
:101F9000CDCC4C3D00007A4480B582B000AF786073
:101FA00087ED000A7B683A681A657B68D3ED147A7E
:101FB000FDEEE77A64226FF0630117EE900AFFF7F7
:101FC00087FF07EE900AF8EEE77A7B68C3ED147A94
:101FD00000BF0837BD4680BD90B583B000AF7860C4
:101FE000786800F03DF87B6803F10C047B681B6D9A
:101FF0001846FEF7B1FA02460B4643EC102B20467A
:10200000FFF772FE7B6803F10C027B68D3ED147A54
:102010007B6893ED137AF0EE470AB0EE670A10463C
:10202000FFF718FEF0EE407A7B68C3ED117A7B680B
:10203000D3ED117AFDEEE77A42F21072064917EEFF
:10204000900AFFF745FF03461946786800F04EF8FE
:1020500000BF0C37BD4690BDF0D8FFFF0000000068
:1020600080B582B000AF78607B681846FFF77AFBD6
:102070007B681846FFF78CFB034607EE903AF8EEB4
:10208000E77A17EE900AFEF767FA4FF00002164B58
:10209000FEF7BAFA02460B461046194610A3D3E9DA
:1020A0000023FEF7DBFB02460B4610461946FEF7FF
:1020B00083FD02467B68DA647B6803F120027B685B
:1020C000D3ED137AB0EE670A1046FFF78CFBF0EE03
:1020D000407A7B68C3ED137A00BF0837BD4680BDE8
:1020E000CDCCCCCCCCCCFC3F00004E4080B582B0F7
:1020F00000AF786039607B681B6C012B03D07B6874
:102100001B6C022B1ED13B68002B0ADD7B68DB6B4E
:102110001B6800225A637B68DB6B1B683A689A6312
:1021200010E03B68002B0DDA3868FFF79DFA386045
:102130007B68DB6B1B6800229A637B68DB6B1B6828
:102140003A685A637B681B6C032B03D07B681B6C5B
:10215000042B1ED13B68002B0ADD7B68DB6B1B6800
:102160000022DA637B68DB6B1B683A681A6410E054
:102170003B68002B0DDA3868FFF776FA38607B6829
:10218000DB6B1B6800221A647B68DB6B1B683A6898
:10219000DA6300BF0837BD4680BD80B582B000AFAE
:1021A00078607B6820331846FFF7ABFE7B681846E3
:1021B0000837BD4680BD000080B582B000AF7860B2
:1021C00078680323084A0949FFF7A8FE7B6803F1F2
:1021D00054000123044A0649FFF7A0FE7B68184615
:1021E0000837BD4680BD00BF300F0020E80E00203C
:1021F000780F002080B582B000AF78607B68184609
:10220000FFF7EAFE7B6854331846FFF7E5FE00BF90
:102210000837BD4680BD80B584B000AFF86087ED5B
:10222000020AC7ED010A97ED027AD7ED017A77EE3F
:10223000676A97ED027AD7ED017A77EE277AF0EEAA
:10224000670AB0EE660AF86800F004F800BF1037BD
:10225000BD4680BD80B584B000AFF86087ED020A4E
:10226000C7ED010AFB68D7ED027AF1EE677AB0EEAE
:10227000670A1846FFF790FEFB68543397ED010A92
:102280001846FFF789FE00BF1037BD4680BD00002D
:10229000B0B52DED028B88B000AF786187ED040AF0
:1022A000C7ED030AD7ED047A9FED427AF4EEC77AC0
:1022B000F1EE10FA01D5404B3B61786900F009F965
:1022C00097ED030AFFF7EEF9F0EE407A9FED3B7AC7
:1022D000F4EEC77AF1EE10FACCBF01230023DBB293
:1022E000002B0DD07B694FF000021A60D7ED037A06
:1022F000B6EE007A67EE877A7B69C3ED017A42E039
:1023000097ED040AFFF7EEF9F0EE407A9FED2C7A94
:1023100027EE878A97ED030AFFF7B4F9F0EE407ACB
:1023200068EE277A7B69C3ED007AF868FEF714F946
:102330004FF00002234BFEF767F902460B461446A6
:102340001D467B6993ED008A97ED030AFFF7BAF902
:10235000F0EE407A28EE277AD7ED047AC7EE276AA6
:1023600016EE900AFEF7F8F802460B46204629467C
:10237000FDF794FF02460B4610461946FEF71CFC7B
:1023800002467B695A607A6907F1180392E80300F4
:1023900083E80300BA69FB6907EE102A07EE903A5A
:1023A000B0EE470AF0EE670A2037BD46BDEC028B5F
:1023B000B0BD00BF0AD7233C0AD7233C0000B4427B
:1023C0000000C8420000E03F80B487B000AF7860F2
:1023D00039604FF000037B612B4B3B610023FB60B6
:1023E000FB68B3F5AF7F42DCFB689B003A6813449F
:1023F000D3ED007A97ED047AB4EEE77AF1EE10FAB5
:1024000031DDFB689B003A681344D3ED007AF5EEAA
:10241000407AF1EE10FA26D0FB689B003A6813442C
:10242000D3ED007A9FED197AF4EEC77AF1EE10FA47
:1024300019DDFB689B003A681344D3ED007A9FEDE9
:10244000147AF4EEC77AF1EE10FA0CD5FB689B0013
:102450003A6813441B683B61FB6807EE903AF8EE5C
:10246000E77AC7ED057AFB680733FB60B8E7D7ED7D
:10247000057AFDEEE77A17EE903A18461C37BD460E
:102480005DF8047B704700BF00401C460000164307
:102490000000FA4380B485B000AF786039603B68D3
:1024A000FB60FB68B32B04DDFB68A3F5B473FB6032
:1024B000F7E7FB6813F1B30F04DAFB6803F5B473B5
:1024C000FB60F6E7FB6818461437BD465DF8047BF1
:1024D000704780B483B000AF78607B684FF0000233
:1024E0001A607B684FF000025A6000BF0C37BD468F
:1024F0005DF8047B704780B582B000AF78607B6880
:10250000184600F0D4FE7B6818460837BD4680BDEB
:1025100080B582B000AF78607B6854331846FFF70F
:102520003CFE7B681846FFF738FE7B681846083784
:10253000BD4680BD80B582B000AF78607B6818462C
:1025400000F0A1FE7B682833B7EE001ADFED0D0A1C
:10255000B2EE040A1846FFF75BFB7B683C33184673
:10256000FEF722FD7B6803F539631846FFF724FE6A
:102570007B68002283F8482C7B6818460837BD46E4
:1025800080BD00BF6F12033A80B582B000AF7860A3
:102590007B683C331846FEF737FD7B683C334FF4CD
:1025A0007A7200211846FEF755FE00BF0837BD4677
:1025B00080BD90B585B000AF78600B46FB707C683D
:1025C000FA7807F108031146184600F091F907F16F
:1025D00008031946204600F08FFE00BF1437BD46A1
:1025E00090BD80B582B000AF78607B68184600F07F
:1025F00095FE0346002B0CBF01230023DBB2002B0A
:1026000001D001230FE07B68184600F0ADFE0346C1
:102610001B78002B0CBF01230023DBB2002B01D061
:10262000012300E0002318460837BD4680BD80B571
:1026300082B000AF78607B6803F539631846FFF716
:10264000D9FD00BF0837BD4680BD000090B58BB0F6
:1026500000AF78607B68184600F06DFE0346002BE3
:102660000DD07C6807F114030021184600F040F9F2
:1026700007F114031946204600F03EFE28E17B686E
:10268000184600F04BFE0346012B09D97B6818461B
:1026900000F06AFE03461B78002B01D1012300E005
:1026A0000023002B04D07B68184600F051FE0FE198
:1026B0007B68184600F058FE024607F10C0392E8CA
:1026C000030083E803007B683C334FF4FA7118463B
:1026D000FEF7EEFE3B7B082B00F2F58001A252F8DC
:1026E00023F000BFC7280008092700082727000893
:1026F00045270008632700089F270008BD2700081A
:1027000069280008812700087B6803F53963DFED3D
:10271000720A9FED710A1846FFF77DFD7B68184627
:1027200000F016FED4E07B6803F53963DFED6B0A39
:102730009FED690A1846FFF76EFD7B68184600F0AA
:1027400007FEC5E07B6803F53963DFED650A9FEDA1
:10275000620A1846FFF75FFD7B68184600F0F8FD37
:10276000B6E07B6803F53963DFED5B0A9FED5D0A38
:102770001846FFF750FD7B68184600F0E9FDA7E01A
:102780007B6803F53963DFED540A9FED540A184660
:10279000FFF741FD7B68184600F0DAFD98E07B68A2
:1027A00003F53963DFED4C0A9FED4F0A1846FFF73A
:1027B00032FD7B68184600F0CBFD89E07B6803F6AC
:1027C00038447B683C331846FEF794FD03461946AF
:1027D0002046FFF7F9FD78627B6A002B75D07B6895
:1027E00003F63843796A1846FFF754FE38627B686F
:1027F0003C33796A1846FEF7A5FD87ED070A7B682A
:1028000003F638433A6A07EE902AF8EEE77A7C68D6
:10281000F0EE670A97ED070A1846FFF739FDB0EEAC
:10282000407AF0EE607A234603F5446383ED007A44
:10283000234603F64443C3ED007A7B6803F539620F
:102840007B6803F5446393ED007A7B6803F64443A9
:10285000D3ED007AF1EE677AF0EE670AB0EE470A40
:102860001046FFF7D8FC30E07B6893F8483C83F0D3
:102870000103DBB2002B09D07B68012283F8482CCE
:1028800002F066FD0346194A136020E002F060FD85
:102890000246164B1B68D31AD7ED047AFCEEE77A92
:1028A00017EE902A92B293422CBF01230023DBB291
:1028B000002B0CD07B68184600F04AFD7B68002294
:1028C00083F8482C03E000BF02E000BF00E000BF37
:1028D00000BF2C37BD4690BD000000000000C8427C
:1028E0000000C8C200008C4200008CC2FC01002025
:1028F00080B483B000AF78600B46FB707B68FA78D9
:102900001A707B6800225A707B6800229A707B687C
:102910004FF000025A607B6818460C37BD465DF8E0
:10292000047B704780B582B000AF78607B681B681D
:10293000044A934202D10448FFF779FE00BF0837EA
:10294000BD4680BD000001400002002080B500AF00
:1029500000224FF48061184803F0BEFC01224FF4BE
:102960000061154803F0B8FC00221021134803F061
:10297000B3FC01222021114803F0AEFC00211048D5
:1029800006F03EF804210E4806F03AF808210C48FB
:1029900006F036F80C210A4806F032F80021094802
:1029A00006F084F90021084806F080F9074805F090
:1029B00075FF00BF80BD00BF000002400004024060
:1029C000300F0020E80E0020780F0020A00E00201D
:1029D00080B500AF02F056FC00F02CF800F0DAFAF7
:1029E00000F0B0FA00F080FA00F096F800F028F954
:1029F00000F01CFA00F082F900F0C2F8642002F046
:102A0000B3FCFFF7A3FF0A48FFF7BEFD642002F006
:102A1000ABFC0748FFF7E5FD0346002B03D006217A
:102A20000348FFF7C6FD0248FFF710FEF1E700BFBD
:102A30000002002080B594B000AF07F120033022DF
:102A40000021184609F080FF07F10C0300221A60EC
:102A50005A609A60DA601A610023BB602C4B1B6CD1
:102A60002B4A43F080531364294B1B6C03F08053B3
:102A7000BB60BB6800237B60264B1B68254A43F480
:102A800040431360234B1B6803F440437B607B6827
:102A900001233B624FF480337B620223BB634FF41C
:102AA0008003FB630C233B6460237B640223BB64D1
:102AB0000423FB6407F12003184605F047FA034698
:102AC000002B14BF01230023DBB2002B01D000F048
:102AD000EDFA0F23FB6002233B6100237B614FF47F
:102AE0008053BB610023FB6107F10C0303211846EF
:102AF00005F0A4FC0346002B14BF01230023DBB226
:102B0000002B01D000F0D2FA00BF5037BD4680BD87
:102B1000003802400070004080B500AF154B164AE7
:102B20001A60144B154A5A60124B00229A60114BDE
:102B30000022DA600F4B4FF480421A610D4B0022E5
:102B40005A610C4B00229A610A4B0022DA61094B50
:102B500000221A62074803F0D9FB0346002B14BF7A
:102B600001230023DBB2002B01D000F09FFA00BF4D
:102B700080BD00BF4C0E002000540040A086010024
:102B800080B586B000AF07F1080300221A605A60D2
:102B90009A60DA603B4600221A605A60264B274A48
:102BA0001A60254B63225A60234B00229A60224B05
:102BB00040F2E732DA60204B00221A611E4B0022FD
:102BC0005A611D4B00229A611B4805F017FE03460F
:102BD000002B14BF01230023DBB2002B01D000F037
:102BE00065FA4FF48053BB6007F108031946124899
:102BF00006F0B4FA0346002B14BF01230023DBB216
:102C0000002B01D000F052FA00233B6000237B60D0
:102C10003B461946084806F05DFE0346002B14BFEC
:102C200001230023DBB2002B01D000F03FFA00BFEC
:102C30001837BD4680BD00BFA00E00200000014037
:102C400080B58CB000AF07F10C0324220021184698
:102C500009F07AFE3B1D00221A605A60264B4FF0A5
:102C600080421A60244B00225A60234B00229A6053
:102C7000214B4FF0FF32DA601F4B00221A611E4BCE
:102C800000229A610123FB6000233B6101237B61E9
:102C90000023BB610023FB6100233B6201237B62B5
:102CA0000023BB620023FB6207F10C0319461248A4
:102CB00005F056FF0346002B14BF01230023DBB2AF
:102CC000002B01D000F0F2F900237B600023BB60F1
:102CD0003B1D1946084806F0FDFD0346002B14BFB6
:102CE00001230023DBB2002B01D000F0DFF900BF8D
:102CF0003037BD4680BD00BFE80E002080B58AB0E9
:102D000000AF07F1200300221A605A603B1D002229
:102D10001A605A609A60DA601A615A619A61414B8E
:102D2000414A1A603F4B00225A603E4B00229A6093
:102D30003C4B42F20F72DA603A4B00221A61394B77
:102D400000229A61374805F00BFE0346002B14BFA2
:102D500001230023DBB2002B01D000F0A7F90023F0
:102D60003B6200237B6207F1200319462D4806F0E1
:102D7000B1FD0346002B14BF01230023DBB2002B5F
:102D800001D000F093F960237B600023BB60002337
:102D9000FB6000237B613B1D00221946214806F0A1
:102DA0001BF90346002B14BF01230023DBB2002BC9
:102DB00001D000F07BF93B1D04221946194806F0AA
:102DC0000BF90346002B14BF01230023DBB2002BB9
:102DD00001D000F06BF93B1D08221946114806F09E
:102DE000FBF80346002B14BF01230023DBB2002BAA
:102DF00001D000F05BF93B1D0C221946094806F092
:102E0000EBF80346002B14BF01230023DBB2002B99
:102E100001D000F04BF9034801F06AFF00BF2837EA
:102E2000BD4680BD300F00200004004080B58CB04E
:102E300000AF07F10C0324220021184609F084FD9D
:102E40003B1D00221A605A60254B264A1A60244B0B
:102E500000225A60224B00229A60214B4FF6FF72EB
:102E6000DA601F4B00221A611D4B00229A61012378
:102E7000FB6000233B6101237B610023BB610023D6
:102E8000FB6100233B6201237B620023BB620023C2
:102E9000FB6207F10C031946114805F061FE034679
:102EA000002B14BF01230023DBB2002B01D000F064
:102EB000FDF800237B600023BB603B1D19460848DA
:102EC00006F008FD0346002B14BF01230023DBB2EC
:102ED000002B01D000F0EAF800BF3037BD4680BDBE
:102EE000780F00200008004080B500AF134B144A53
:102EF0001A60124B4FF4E1325A60104B00229A6074
:102F00000E4B0022DA600D4B00221A610B4B0C2293
:102F10005A610A4B00229A61084B0022DA61074885
:102F200006F05AFD0346002B14BF01230023DBB239
:102F3000002B01D000F0BAF800BF80BDC00F002008
:102F40000044004080B582B000AF00237B60104B8E
:102F50001B6B0F4A43F4001313630D4B1B6B03F4FD
:102F600000137B607B6800220021102002F01FFB11
:102F7000102002F038FB00220021112002F017FB84
:102F8000112002F030FB00BF0837BD4680BD00BFF6
:102F90000038024080B58AB000AF07F11403002268
:102FA0001A605A609A60DA601A6100233B613B4BF9
:102FB0001B6B3A4A43F004031363384B1B6B03F05B
:102FC00004033B613B690023FB60344B1B6B334ABA
:102FD00043F080031363314B1B6B03F08003FB60F2
:102FE000FB680023BB602D4B1B6B2C4A43F0010395
:102FF00013632A4B1B6B03F00103BB60BB68002308
:103000007B60264B1B6B254A43F002031363234B63
:103010001B6B03F002037B607B6800224FF40051BE
:103020001F4803F059F900224FF440611D4803F096
:1030300053F9002230211C4803F04EF94FF400539D
:103040007B610123BB610023FB6100233B6207F12D
:1030500014031946124802F0D7FE4FF440637B6117
:103060000123BB610023FB6100233B6207F11403D2
:1030700019460C4802F0C8FE30237B610123BB6176
:103080000023FB6100233B6207F114031946064845
:1030900002F0BAFE00BF2837BD4680BD00380240AE
:1030A00000080240000002400004024080B400AF6B
:1030B00072B600BFFEE780B582B000AF7860786876
:1030C00000F05FF97B6818460837BD4680BD80B5C3
:1030D00082B000AF7860786800F05EF97B681846CF
:1030E0000837BD4680BDB0B582B000AF78607B6860
:1030F0001C687B685D687B68184600F095F903469C
:103100001A462946204600F09AF97B68184600F0D6
:1031100005F87B6818460837BD46B0BD80B582B05B
:1031200000AF78607B6819687B689A687B681B6869
:10313000D31A9B101A46786800F09DF97B681846F0
:10314000FEF733FB7B6818460837BD4680BDF0B5F7
:1031500085B000AF786039607C68386800F09EF90F
:1031600005463B68184600F0B7F9024607F10C0324
:103170001146184600F0A2F907F10C031A46294639
:10318000204600F03DF907F10C031846FFF79FFFBA
:10319000386800F0ACF90546386800F0B8F9064622
:1031A0007B681C687B68184600F03EF9034622469F
:1031B0003146284600F0BCF902467B685A607B68BD
:1031C00018461437BD46F0BD80B483B000AF7860B8
:1031D00039607B681A683B689B00134418460C37BB
:1031E000BD465DF8047B7047B0B586B000AFF860AF
:1031F000381D80E806003B60FB683968184600F01F
:10320000A8F93B1D184600F0B3F904463B1D1846CB
:1032100000F0BAF902462B462146F86800F0C6F9DC
:10322000FB6818461837BD46B0BDB0B582B000AFD8
:1032300087ED010A38607868FDF78EF904460D467F
:103240003868FDF777F902460B4643EC112B45EC45
:10325000104B07F0A5FDB0EE407AF0EE607AB0EECC
:10326000470AF0EE670A0837BD46B0BD80B582B0A8
:1032700000AF78607B68184600F0DDF97B6818467F
:103280000837BD4680BD80B582B000AF78607B68EE
:10329000184628231A46002109F056FB7B68184679
:1032A000FFF7E4FF7B6818460837BD4680BD80B550
:1032B0008AB000AF786007F108037968184600F01B
:1032C000EDF907F118037968184600F0F6F97B6804
:1032D000184600F001FA034607F1180207F1080149
:1032E000786800F020FA7B68184600F0B5F97B6832
:1032F00018462837BD4680BD90B583B000AF7860D2
:1033000039607C68386800F01BFA0346194620468D
:1033100000F021FA00BF0C37BD4690BD80B582B0E9
:1033200000AF78607B68184600F026FA034618461E
:103330000837BD4680BD80B582B000AF78607B683D
:10334000184600F02BFA034618460837BD4680BDE4
:1033500080B582B000AF78607B68184600F030FA24
:1033600000BF0837BD4680BD80B582B000AF786031
:103370007B68184600F048FA034618460837BD46F1
:1033800080BD80B483B000AF78607B6818460C378E
:10339000BD465DF8047B704780B483B000AF7860B1
:1033A0007B6818460C37BD465DF8047B704700000B
:1033B00090B585B000AF7860396007F10C033968CB
:1033C000184600F04AF807F10C03184600F030FAEE
:1033D00002467B6893428CBF01230023DCB207F1D5
:1033E0000C031846FFF773FE002C02D0034807F0C9
:1033F000EDFB7B6818461437BD4690BD60F30008AE
:1034000080B584B000AFF860B9607A60FB68796815
:10341000184600F027FAB968F86800F035FAFB683A
:1034200018461037BD4680BD80B483B000AF7860C9
:103430007B6818460C37BD465DF8047B704780B545
:1034400084B000AFF860B9607A60B968F86800F0DD
:1034500036FA00BF1037BD4680BD80B582B000AFE0
:10346000786039603968786800F036FA7B68184609
:103470000837BD4680BD80B584B000AFF860B96044
:103480007A60BB68002B05D0FB687A68B96818467B
:1034900000F02EFA00BF1037BD4680BD80B483B067
:1034A00000AF78607B685A687B681B68D31A9B10F2
:1034B00018460C37BD465DF8047B704780B582B076
:1034C00000AF786039607B683968184600F01FFAF1
:1034D00078680837BD4680BD80B483B000AF78609F
:1034E0007B6818460C37BD465DF8047B704780B595
:1034F00084B000AF78607A6807F10C031146184673
:1035000000F012FAFB6818461037BD4680BD80B542
:1035100084B000AF78607B681A1D07F10C03114678
:10352000184600F001FAFB6818461037BD4680BD0A
:1035300080B584B000AFF860B9607A603B607A68AB
:10354000B968F86800F000FA034618461037BD461F
:1035500080BD80B582B000AF786039607B68396823
:10356000184600F07FF97B6818460837BD4680BDD5
:1035700080B483B000AF78607B681B6818460C3756
:10358000BD465DF8047B704790B583B000AF7860AE
:103590007868FFF7EDFF0446786800F0E7F9034626
:1035A0009B00234418460C37BD4690BD90B587B0AC
:1035B00000AFF860B9607A603B707968B86800F075
:1035C000E1F903467B61FC68FB681846FFF72CFFB6
:1035D000034619467869FFF7EBFE03461946204675
:1035E00000F0E4F90246FB681A60FB681A687B6920
:1035F0009B001A44FB689A60FB681C68FB681846CD
:10360000FFF712FF034622467968B86800F0E2F936
:103610000246FB685A6000BF1C37BD4690BD80B5AE
:1036200082B000AF7860786800F0F5F97B681846E2
:103630000837BD4680BD80B582B000AF78607B683A
:10364000184600F0D8F90021786800F0F0F97B689E
:1036500018460837BD4680BD80B582B000AF78609F
:103660007B681B68002B10D07B6859697B685B6A9C
:1036700004331A46786800F03DFA7B6819687B6865
:103680005B681A46786800F04FFA7B681846FFF7C7
:10369000C6FF7B6818460837BD4680BD80B582B03E
:1036A00000AF786039603B6808331946786800F0ED
:1036B0001EF878680837BD4680BD80B582B000AF7F
:1036C000786039603B6818331946786800F00FF865
:1036D00078680837BD4680BD80B483B000AF78609D
:1036E0007B6818460C37BD465DF8047B704780B494
:1036F00083B000AF786039603B681A687B681A60F5
:103700003B685A687B685A603B689A687B689A6035
:103710003B68DA687B68DA607B6818460C37BD4620
:103720005DF8047B704780B48DB000AFF860B9607D
:103730007A603B6000BF3437BD465DF8047B70475C
:1037400080B483B000AF78607B6818460C37BD4604
:103750005DF8047B704780B582B000AF7860396057
:103760003868FFF7EDFF03461946786800F0F8F96E
:1037700000BF0837BD4680BD80B582B000AF78601D
:103780007B6803F118027B6808331946104600F085
:1037900012FA034618460837BD4680BD80B582B090
:1037A00000AF78607B6803F118027B680833194624
:1037B000104600F024FA034618460837BD4680BD7F
:1037C00080B582B000AF78607B689A687B681B69BF
:1037D000083B9A4211D07B681846FFF77DFF0246EE
:1037E0007B689B681946104600F01DFA7B689B6851
:1037F00003F108027B689A6002E0786800F020FA22
:1038000000BF0837BD4680BD80B586B000AF786088
:1038100007F1080379681846FFF740FF07F108032E
:10382000184600F035FA034618461837BD4680BDE5
:1038300080B584B000AF78606FF06043FB6078685B
:1038400000F032FA0346BB6007F1080207F10C03EF
:103850001146184600F034FA03461B681846103724
:10386000BD4680BD80B582B000AF786039603968F0
:103870007868FFF7F2FD7B68184600F035FA7B6840
:1038800018460837BD4680BD80B582B000AF78606D
:1038900039603968786800F089F802467B681A60F8
:1038A0007B681A687B685A607B681A683B689B0073
:1038B0001A447B689A6000BF0837BD4680BD80B55A
:1038C00082B000AF786039603968786800F020FA1B
:1038D00000BF0837BD4680BD80B483B000AF7860BC
:1038E00039607B6818460C37BD465DF8047B70472D
:1038F00080B584B000AFF860B9607A607A68B96862
:10390000F86800F010FA00BF1037BD4680BD80B5E2
:1039100082B000AF7860396039687868FFF79DFD44
:1039200078680837BD4680BD80B483B000AF78604A
:1039300039603B681A687B681A607B6818460C37E8
:10394000BD465DF8047B704780B586B000AFF86077
:10395000B9607A600123FB757A68B968F86800F08D
:10396000F2F9034618461837BD4680BD80B483B0CF
:1039700000AF78607B685B6818460C37BD465DF821
:10398000047B7047B0B582B000AF786039607C6866
:103990003B1D184600F0E7F92A463968204600F03A
:1039A000EDF9034618460837BD46B0BD80B582B074
:1039B00000AF786039603B68002B06D07B683968BF
:1039C000184600F0EBF9034600E0002318460837DC
:1039D000BD4680BD80B584B000AFF860B9607A6044
:1039E0003B607A68B968F86800F0E7F90346184662
:1039F0001037BD4680BD80B582B000AF7860786872
:103A000000F0EDF97B68184600F0F5F97B68184680
:103A10000837BD4680BD80B582B000AF7860786859
:103A200000F002FA7B6818460837BD4680BD90B5A5
:103A300089B000AF786039600820FDF76FFE02465C
:103A40003B68B3FBF2F30133FB610823FB60FB69C6
:103A500002333B6107F1100207F10C0311461846CF
:103A600000F0EDF903461A687B685A607B685B6872
:103A70001946786800F0F7F902467B681A607B689F
:103A80001A687B685968FB69CB1A5B089B00134472
:103A9000BB61FB699B00BA6913447B617A69B969B0
:103AA000786800F0FDF97B680833B969184600F0C2
:103AB00011FA7B6803F118027B69043B1946104632
:103AC00000F008FA7B68DA687B689A607B68DC69DA
:103AD0000820FDF723FE02463B68B3FBF2F101FB31
:103AE00002F29B1ADB00E2187B689A6100BF243760
:103AF000BD4690BD80B586B000AFF860B9607A6011
:103B0000BB687B617A697B689A4209D27B691B68D2
:103B10001946F86800F0F7F97B6904337B61F1E737
:103B200000BF1837BD4680BD80B586B000AFF860D5
:103B3000B9607A6007F11403F968184600F0F6F9E5
:103B400007F114037A68B968184600F00CFA07F117
:103B50001403184600F0FBF900BF1837BD4680BDBE
:103B6000B0B582B000AF786039607B689A697B68D5
:103B70001B6A083B9A4212D07C687B689D69386852
:103B800000F000FA03461A462946204600F005FADE
:103B90007B689B6903F108027B689A6107E03868DB
:103BA00000F0F0F903461946786800F009FA00BF02
:103BB0000837BD46B0BD80B582B000AF78603960CF
:103BC00000F042FA034619467B68DA683B68DB6816
:103BD000D31A9B10013B01FB03F37A6811687A68E2
:103BE00052688A1AD21013443A6891683A68126887
:103BF0008A1AD210134418460837BD4680BD80B4D7
:103C000083B000AF786039607B681A683B681B68D6
:103C10009A420CBF01230023DBB218460C37BD4685
:103C20005DF8047B704780B582B000AF7860396082
:103C30003968786800F010FA00BF0837BD4680BDCB
:103C400080B582B000AF78607B681846FFF744FD0E
:103C500002467B689B6819461046FFF7E4FF7A68C6
:103C60007B68DB681946104600F04DF97B6803F16C
:103C700008027B685B6904331946104600F02AF994
:103C80007B68DA687B689A6000BF0837BD4680BDF4
:103C900080B483B000AF78607B681B6818460C372F
:103CA000BD465DF8047B704780B582B000AF786098
:103CB000786800F0DCF9034618460837BD4680BD39
:103CC00080B483B000AF786039603B681A687B6865
:103CD0001B689A4201D23B6800E07B6818460C37AB
:103CE000BD465DF8047B704780B483B000AF786058
:103CF0007B6800221A607B6800225A607B68002281
:103D00009A607B6818460C37BD465DF8047B7047A7
:103D100080B483B000AF7860396000BF0C37BD4617
:103D20005DF8047B704780B584B000AFF860B9607F
:103D30007A607B689B001946B86806F031FF00BFC7
:103D40001037BD4680BD80B584B000AFF860B96063
:103D50007A607A68B968F86800F095F90346184601
:103D60001037BD4680BD80B483B000AF786000BF1F
:103D700018460C37BD465DF8047B704780B485B0AB
:103D800000AFF860B9603A71BA68FB68D31A9B104B
:103D900018461437BD465DF8047B704780B582B085
:103DA00000AF7860396000223968786800F083F9E4
:103DB000034618460837BD4680BD80B586B000AFC3
:103DC000F860B9607A600123FB757A68B968F868B1
:103DD00000F08FF9034618461837BD4680BD80B500
:103DE00082B000AF7860786800F093F97B6818467D
:103DF0000837BD4680BD80B582B000AF78607B6873
:103E000000221A607B6800225A607B6808331846DB
:103E100000F08AF97B681833184600F085F97B6852
:103E200018460837BD4680BD80B483B000AF7860C7
:103E30007B6818460C37BD465DF8047B704780B43C
:103E400083B000AF786039607B681A683B681B6894
:103E50009A4201D23B6800E07B6818460C37BD46A9
:103E60005DF8047B704790B585B000AF786039602D
:103E700007F10C037968184600F058F807F10C03B5
:103E80003968184600F067F9044600BF07F10C03D3
:103E9000184600F05CF8234618461437BD4690BD1E
:103EA00080B586B000AFF860B9607A60BB687B61AE
:103EB0007A697B689A4209D2F86800F05BF9024699
:103EC0007B691A607B6904337B61F1E700BF1837B7
:103ED000BD4680BD90B583B000AF786039607B6827
:103EE0003A68DA603B681A687B685A607B685C688D
:103EF00000F0AAF80346DB00E2187B689A6000BF76
:103F00000C37BD4690BD90B583B000AF7860396086
:103F10007C680820FDF702FC03461A4639682046F3
:103F200000F03AF900BF0C37BD4690BD80B582B0B5
:103F300000AF78603960386800F03DF903461946F3
:103F4000786800F043F978680837BD4680BD80B5D1
:103F500082B000AF7860786800F045F97B68184659
:103F60000837BD4680BD80B584B000AFF860B96049
:103F70007A607A68B968F86800F040F900BF1037D5
:103F8000BD4680BD80B483B000AF78607B681846C2
:103F90000C37BD465DF8047B704780B584B000AF38
:103FA000F860B9607A607868FFF7ECFF03461A465C
:103FB000B968F86800F032F900BF1037BD4680BD1F
:103FC000B0B582B000AF786039607868FFF7D4FB95
:103FD0000446786800F03BF903469C420CBF01237D
:103FE0000023DBB2002B02D0164806F0EFFD0121C2
:103FF000786800F03DF97A687B685B6A1C1D1046A2
:1040000000F0B8F8034623607C687B689D693868D7
:10401000FFF7B8FF03461A4629462046FFF7BDFFC3
:104020007B6803F118027B685B6A0433194610460B
:10403000FFF750FF7B68DA697B689A6100BF083739
:10404000BD46B0BD94F3000880B500AF0820FDF771
:1040500065FB0346184680BD80B483B000AF78602E
:10406000396000BF0C37BD465DF8047B704780B5F2
:1040700082B000AF7860786800F015F90346184602
:104080000837BD4680BD90B585B000AFF860B96017
:104090007A60F86800F013F90446B86800F00FF988
:1040A00003467A681946204600F014F9034618467C
:1040B0001437BD4690BD80B584B000AFF860B960DC
:1040C0007A60F86800F0EFF80246BB6893428CBF54
:1040D00001230023DBB2002B01D006F074FDBB6886
:1040E0009B00184606F05EFD034618461037BD4695
:1040F00080BD80B584B000AFF860B9607A607A683E
:10410000B968F86800F009F9034618461037BD464B
:1041100080BD80B483B000AF78607B6818460C37F0
:10412000BD465DF8047B704780B483B000AF786013
:104130007B6800221A607B6800225A607B6800223C
:104140009A607B680022DA607B6818460C37BD46AF
:104150005DF8047B704780B582B000AF786039604D
:1041600000223968786800F0F0F8034618460837EE
:10417000BD4680BD90B583B000AF78607C680820F4
:10418000FDF7CCFA03461946204600F0FCF803463A
:1041900018460C37BD4690BD80B584B000AFF860BE
:1041A000B9607A607A68B968F86800F0FBF800BF17
:1041B0001037BD4680BD80B483B000AF78607B68A7
:1041C00018460C37BD465DF8047B704780B582B059
:1041D00000AF78603960786800F0F4F87B681846C2
:1041E0000837BD4680BD80B483B000AF78607B687F
:1041F00018460C37BD465DF8047B704780B584B027
:1042000000AFF860B9607A607B689B001946B868B7
:1042100006F0C6FC00BF1037BD4680BD90B585B026
:1042200000AFF860B9607A607868FFF7ABFE0446CB
:10423000BB6819460820FDF765FA0346224692E856
:10424000030083E8030000BF1437BD4690BD80B56E
:1042500082B000AF78607B681846FFF7ACFF03467A
:10426000184600F0BAF8034618460837BD4680BD28
:1042700080B582B000AF786039603B685A1C7B68BB
:104280005B687968486A79680968411A89105B1A1D
:104290009A4204D900223968786800F0B8F800BF63
:1042A0000837BD4680BD80B483B000AF78606FF042
:1042B000604318460C37BD465DF8047B704780B4F8
:1042C00083B000AF78607B6818460C37BD465DF858
:1042D000047B7047B0B584B000AFF860B9607A6015
:1042E000F86800F02EF90446B86800F02AF905468F
:1042F0007B68184600F033F903461A4629462046E3
:1043000000F038F902463B1D1146184600F042F90C
:10431000034618461037BD46B0BD90B585B000AF16
:10432000F860B9607A60F86800F040F90446B8684F
:1043300000F03CF903467A681946204600F041F93E
:10434000034618461437BD4690BD80B584B000AF13
:10435000F860B9607A60F86800F056F90246BB6808
:1043600093428CBF01230023DBB2002B01D006F067
:104370002AFCBB689B00184606F014FC034618464E
:104380001037BD4680BD80B582B000AF786039601F
:1043900000223968786800F043F903461846083768
:1043A000BD4680BD80B584B000AFF860B9607A606A
:1043B0007B68DB001946B86806F0F2FB00BF1037D7
:1043C000BD4680BD80B483B000AF78607B6818467E
:1043D0000C37BD465DF8047B704780B584B000AFF4
:1043E00078606FF00043FB60786800F037F90346AF
:1043F000BB6007F1080207F10C0311461846FFF7EE
:104400005FFC03461B6818461037BD4680BD90B55B
:104410008BB000AFF860B9601346FB71FB685A6A55
:10442000FB685B69D31A9B1001333B62BB683A6A35
:104430001344FB61FB685A68FB695B009A422DD903
:10444000FB681A68FB685968FB69CB1A5B0899001E
:10445000FB79002B02D0BB689B0000E000230B44DB
:1044600013447B62FB685B697A6A9A4209D2FB68F3
:104470005869FB685B6A04337A6A194600F0FAF8F7
:1044800048E0FB685869FB685B6A191D3B6A9B0042
:104490007A6A13441A4600F005F93BE0FB685C6851
:1044A000FB68043307F1080211461846FFF7C7FC02
:1044B00003461B6823440233BB61FB68B969184695
:1044C000FFF7D1FC7861BA69FB69D31A5B089A00DF
:1044D000FB79002B02D0BB689B0000E00023134453
:1044E0007A6913447B62FB685869FB685B6A043332
:1044F0007A6A194600F0BEF8F868FB681968FB682C
:104500005B681A46FFF710FBFB687A691A60FB6864
:10451000BA695A60FB680833796A1846FFF7DAFC13
:10452000FB6803F118003B6A03F18043013B9B00E9
:104530007A6A13441946FFF7CDFC00BF2C37BD46FD
:1045400090BD80B582B000AF78603B1D184600F08A
:10455000C1F803461B6818460837BD4680BD80B4C5
:1045600083B000AF78607B6818460C37BD465DF8B5
:10457000047B704780B584B000AFF860B9607A60A2
:104580007A68B968F86800F0B0F803461846103742
:10459000BD4680BD80B483B000AF786039603B68B1
:1045A00018460C37BD465DF8047B704780B483B075
:1045B00000AF78607B6818460C37BD465DF8047B19
:1045C0007047B0B584B000AFF860B9607A60F86841
:1045D00000F09BF80446B86800F097F805467B6841
:1045E0001846FFF7BCFF03461A4629462046FFF748
:1045F000C1FF02463B1D11461846FFF7CBFF03469D
:1046000018461037BD46B0BD80B483B000AF7860A7
:104610006FF0604318460C37BD465DF8047B704769
:1046200080B584B000AFF860B9607A60F86800F0D7
:1046300077F80246BB6893428CBF01230023DBB2AC
:10464000002B01D006F0BFFABB68DB00184606F06D
:10465000A9FA034618461037BD4680BD80B582B022
:1046600000AF7860786800F067F8034618460837AE
:10467000BD4680BD90B585B000AFF860B9607A6086
:10468000F86800F065F80446B86800F061F8034681
:104690007A681946204600F066F803461846143733
:1046A000BD4690BD90B585B000AFF860B9607A6046
:1046B000F86800F04DF80446B86800F049F8034681
:1046C0007A681946204600F071F8034618461437F8
:1046D000BD4690BD80B483B000AF78607B6818465B
:1046E0000C37BD465DF8047B704780B584B000AFE1
:1046F000F860B9607A607A68B968F86800F079F8AB
:10470000034618461037BD4680BD80B483B000AF65
:1047100078607B6818460C37BD465DF8047B7047AF
:1047200080B483B000AF78606FF0704318460C37E8
:10473000BD465DF8047B704780B582B000AF7860FD
:104740007868FFF7EDFF034618460837BD4680BD81
:1047500080B483B000AF78607B6818460C37BD46E4
:104760005DF8047B7047B0B584B000AFF860B96005
:104770007A60F86800F05AF80446B86800F056F815
:1047800005467B68184600F051F803461A4629464C
:10479000204600F056F802463B1D1146184600F030
:1047A00060F8034618461037BD46B0BDB0B584B0BA
:1047B00000AFF860B9607A60F86800F037F8044636
:1047C000B86800F033F805467B68184600F02EF80C
:1047D00003461A462946204600F04FF802463B1D84
:1047E0001146184600F03DF8034618461037BD46FE
:1047F000B0BD80B586B000AFF860B9607A60BA68C5
:10480000FB68D31A9B107B617B69002B06D07B6908
:104810009B001A46F968786808F07CF87B699B0071
:104820007A68134418461837BD4680BD80B483B0FB
:1048300000AF78607B6818460C37BD465DF8047B96
:10484000704780B584B000AFF860B9607A607A686C
:10485000B968F86800F021F8034618461037BD46DD
:1048600080BD80B483B000AF786039603B68184683
:104870000C37BD465DF8047B704780B584B000AF4F
:10488000F860B9607A607A68B968F86800F015F87D
:10489000034618461037BD4680BD80B584B000AFD2
:1048A000F860B9607A607A68B968F86800F015F85D
:1048B000034618461037BD4680BD80B584B000AFB2
:1048C000F860B9607A607A68B968F86800F022F830
:1048D000034618461037BD4680BD80B586B000AF90
:1048E000F860B9607A60BA68FB68D31A9B107B6184
:1048F0007B69002B06D07B699B001A46F9687868B3
:1049000008F008F87B699B007A681344184618374A
:10491000BD4680BD80B586B000AFF860B9607A60F2
:10492000BA68FB68D31A9B107B617B69002B0AD0A5
:104930007B699B005B427A68D0187B699B001A46B2
:10494000F96807F0E7FF7B699B005B427A681344D4
:1049500018461837BD4680BD80B582B000AF78607C
:104960007B6803F539631846FDF7D2FD7B683C335D
:104970001846FCF73DFB7B681846FDF7BCFD7B68DD
:1049800018460837BD4680BD80B582B000AF78605C
:1049900039607B68012B07D13B684FF6FF72934269
:1049A00002D10948FDF7C6FD7B68002B07D13B68A3
:1049B0004FF6FF72934202D10348FFF7CDFF00BFCD
:1049C0000837BD4680BD00BF0002002080B500AFA3
:1049D0004FF6FF710120FFF7D7FF80BD80B500AF14
:1049E0004FF6FF710020FFF7CFFF80BD80B483B08A
:1049F00000AF00237B60104B5B6C0F4A43F4804395
:104A000053640D4B5B6C03F480437B607B68002335
:104A10003B60094B1B6C084A43F080531364064B00
:104A20001B6C03F080533B603B6800BF0C37BD46F6
:104A30005DF8047B704700BF0038024080B58AB043
:104A400000AF786007F1140300221A605A609A6080
:104A5000DA601A617B681B68214A93423CD10023CB
:104A60003B61204B1B6B1F4A43F0020313631D4B3A
:104A70001B6B03F002033B613B694FF440737B61A6
:104A80001223BB610023FB6103233B6204237B628F
:104A900007F114031946144801F0B6F90023FB602E
:104AA000104B1B6C0F4A43F4001313640D4B1B6C2B
:104AB00003F40013FB60FB68002200211F2000F0BC
:104AC00076FD1F2000F08FFD00220021202000F045
:104AD0006EFD202000F087FD00BF2837BD4680BD59
:104AE00000540040003802400004024080B584B009
:104AF00000AF78607B681B681A4A93422DD100236F
:104B0000FB60194B5B6C184A43F001035364164B6E
:104B10005B6C03F00103FB60FB680022002118209E
:104B200000F045FD182000F05EFD00220021192054
:104B300000F03DFD192000F056FD002200211A2052
:104B400000F035FD1A2000F04EFD002200211B2050
:104B500000F02DFD1B2000F046FD00BF1037BD46C4
:104B600080BD00BF000001400038024080B58CB01D
:104B700000AF786007F11C0300221A605A609A6047
:104B8000DA601A617B681B68B3F1804F4BD1002358
:104B9000BB613F4B1B6C3E4A43F0010313643C4B2B
:104BA0001B6C03F00103BB61BB6900237B61384BC5
:104BB0001B6B374A43F001031363354B1B6B03F048
:104BC00001037B617B6900233B61314B1B6B304AE6
:104BD00043F0020313632E4B1B6B03F002033B6194
:104BE0003B694FF40043FB6102233B6200237B627D
:104BF0000023BB620123FB6207F11C031946254811
:104C000001F002F90823FB6102233B6200237B626F
:104C10000023BB620123FB6207F11C0319461E48F7
:104C200001F0F2F830E07B681B681C4A93422BD1FC
:104C30000023FB60164B1B6C154A43F004031364FE
:104C4000134B1B6C03F00403FB60FB680023BB6089
:104C50000F4B1B6B0E4A43F0020313630C4B1B6B91
:104C600003F00203BB60BB68C023FB6102233B620D
:104C700000237B620023BB620223FB6207F11C035B
:104C80001946054801F0C0F800BF3037BD4680BD69
:104C900000380240000002400004024000080040CA
:104CA00080B584B000AF78607B681B680E4A934281
:104CB00015D10023FB600D4B1B6C0C4A43F0020323
:104CC00013640A4B1B6C03F00203FB60FB680022B9
:104CD00000211D2000F06BFC1D2000F084FC00BFB3
:104CE0001037BD4680BD00BF0004004000380240C0
:104CF00080B58AB000AF786007F1140300221A6013
:104D00005A609A60DA601A617B681B68214A934294
:104D10003BD100233B61204B1B6B1F4A43F0010337
:104D200013631D4B1B6B03F001033B613B690023C5
:104D3000FB60194B1B6B184A43F002031363164BBD
:104D40001B6B03F00203FB60FB68C0237B61022343
:104D5000BB610023FB6100233B6202237B6207F1FE
:104D6000140319460D4801F04FF803237B61022319
:104D7000BB610023FB6100233B6202237B6207F1DE
:104D800014031946064801F03FF800BF2837BD4616
:104D900080BD00BF00040040003802400000024017
:104DA0000004024080B58AB000AF786007F11403B8
:104DB00000221A605A609A60DA601A617B681B6888
:104DC0004C4A934240F0928000233B614A4B1B6C5B
:104DD000494A43F400331364474B1B6C03F400331C
:104DE0003B613B690023FB60434B1B6B424A43F032
:104DF00001031363404B1B6B03F00103FB60FB6873
:104E00000C237B610223BB610023FB6103233B6214
:104E100007237B6207F114031946384800F0F4FFBA
:104E2000374B384A1A60364B4FF000625A60344BA9
:104E300000229A60324B0022DA60314B4FF48062DC
:104E40001A612F4B00225A612D4B00229A612C4B84
:104E50000022DA612A4B4FF400321A62284B0022FA
:104E60005A62274800F0E8FB0346002B01D0FEF70A
:104E70001DF97B68224A9A63214A7B689363224B1F
:104E8000224A1A60204B4FF000625A601E4B4022AB
:104E90009A601D4B0022DA601B4B4FF480621A614E
:104EA000194B00225A61184B00229A61164B0022BE
:104EB000DA61154B4FF400321A62134B00225A622A
:104EC000114800F0B9FB0346002B01D0FEF7EEF8C5
:104ED0007B680D4A5A630C4A7B6893630022002169
:104EE000262000F064FB262000F07DFB00BF283761
:104EF000BD4680BD00440040003802400000024032
:104F0000041000208860024064100020A06002406D
:104F100080B582B000AF78607B681B680E4A934210
:104F200016D10E4B1B6C0D4A23F4003313640C2175
:104F30000B4801F0EDF87B689B6B184600F02AFCEB
:104F40007B685B6B184600F025FC262000F059FBBF
:104F500000BF0837BD4680BD004400400038024015
:104F60000000024080B400AFFEE780B400AFFEE76F
:104F700080B400AFFEE780B400AFFEE780B400AFBE
:104F8000FEE780B400AF00BFBD465DF8047B70470C
:104F900080B400AF00BFBD465DF8047B704780B4AD
:104FA00000AF00BFBD465DF8047B704780B500AF21
:104FB00000F0BAF900BF80BD80B500AF024800F034
:104FC000D9FC00BF80BD00BF0410002080B500AF39
:104FD000024800F0CFFC00BF80BD00BF641000207D
:104FE00080B500AF024803F0EFFE00BF80BD00BFF8
:104FF000A00E002080B500AF024803F0E5FE00BF20
:1050000080BD00BFA00E002080B500AF024803F0B5
:10501000DBFE00BF80BD00BFA00E002080B500AF4A
:10502000024803F0D1FE00BF80BD00BFA00E0020EB
:1050300080B500AF024803F0C7FE00BF80BD00BFCF
:10504000300F002080B500AF024801F0A3FA00BF86
:1050500080BD00BF4C0E002080B500AF024801F0BB
:105060000AFC00BF80BD00BF4C0E002080B500AF21
:10507000024804F061FE00BF80BD00BFC00F0020E9
:1050800080B400AF01231846BD465DF8047B70472D
:1050900080B582B000AF7860396007F0F3FB03465B
:1050A00016221A604FF0FF3318460837BD4680BD00
:1050B00080B582B000AF78604FF0FF317868FFF7BD
:1050C000E7FFFEE780B586B000AFF860B9607A60B0
:1050D00000237B610AE0AFF300800146BB685A1CE5
:1050E000BA60CAB21A707B6901337B617A697B68E6
:1050F0009A42F0DB7B6818461837BD4680BD80B504
:1051000086B000AFF860B9607A6000237B6109E087
:10511000BB685A1CBA601B781846AFF300807B69E5
:1051200001337B617A697B689A42F1DB7B681846C0
:105130001837BD4680BD80B483B000AF78604FF0B3
:10514000FF3318460C37BD465DF8047B704780B4CA
:1051500083B000AF786039603B684FF400525A600A
:10516000002318460C37BD465DF8047B704780B4B9
:1051700083B000AF7860012318460C37BD465DF858
:10518000047B704780B485B000AFF860B9607A6086
:10519000002318461437BD465DF8047B70470000B5
:1051A00080B586B000AF7860144A154BD31A7B6186
:1051B0007B693B61134B1B68002B02D1114B124AD8
:1051C0001A60104B1A687B6813443A699A4207D2F6
:1051D00007F058FB03460C221A604FF0FF3309E03A
:1051E000084B1B68FB60074B1A687B681344054A31
:1051F0001360FB6818461837BD4680BD00000220CA
:1052000000040000C4100020E010002080B400AFB3
:10521000064BD3F88830054A43F47003C2F888304F
:1052200000BFBD465DF8047B704700BF00ED00E0A5
:10523000DFF834D00D480E490E4A002302E0D4585E
:10524000C4500433C4188C42F9D30B4A0B4C0023CE
:1052500001E013600432A242FBD3FFF7D7FF07F04F
:1052600017FBFDF7B5FB704700000220000000208F
:10527000DC010020DCFB0008DC010020E010002045
:10528000FEE7000080B500AF0E4B1B680D4A43F4EB
:10529000007313600B4B1B680A4A43F4806313606E
:1052A000084B1B68074A43F480731360032000F027
:1052B00073F90F2000F008F8FFF798FB0023184659
:1052C00080BD00BF003C024080B582B000AF786076
:1052D000124B1A68124B1B7819464FF47A73B3FBC2
:1052E000F1F3B2FBF3F3184600F099F90346002BF3
:1052F00001D001230EE07B680F2B0AD800227968C9
:105300004FF0FF3000F053F9064A7B68136000232A
:1053100000E0012318460837BD4680BD000000208C
:10532000080000200400002080B400AF064B1B786A
:105330001A46064B1B681344044A136000BFBD465F
:105340005DF8047B704700BF08000020C8100020F3
:1053500080B400AF034B1B681846BD465DF8047B64
:10536000704700BFC810002080B584B000AF7860DF
:10537000FFF7EEFFB8607B68FB60FB68B3F1FF3FAF
:1053800005D00A4B1B781A46FB681344FB6000BF2C
:10539000FFF7DEFF0246BB68D31AFA689A42F7D8D5
:1053A00000BF00BF1037BD4680BD00BF0800002011
:1053B00080B485B000AF78607B6803F00703FB60C2
:1053C0000C4BDB68BB60BA684FF6FF031340BB6051
:1053D000FB681A02BB68134343F0BF6343F4003316
:1053E000BB60044ABB68D36000BF1437BD465DF89C
:1053F000047B704700ED00E080B400AF044BDB6835
:105400001B0A03F007031846BD465DF8047B70478E
:1054100000ED00E080B483B000AF0346FB7197F964
:105420000730002B0BDBFB7903F01F02074997F9CC
:1054300007305B09012000FA02F241F8232000BF87
:105440000C37BD465DF8047B704700BF00E100E00B
:1054500080B483B000AF0346FB7197F90730002B8F
:1054600012DBFB7903F01F020A4997F907305B0949
:10547000012000FA02F2203341F82320BFF34F8FBE
:1054800000BFBFF36F8F00BF00BF0C37BD465DF894
:10549000047B704700E100E080B483B000AF0346B6
:1054A0003960FB7197F90730002B0ADB3B68DAB2F1
:1054B0000C4997F907301201D2B20B4483F800234C
:1054C0000AE03B68DAB20849FB7903F00F03043BBA
:1054D0001201D2B20B441A7600BF0C37BD465DF8FC
:1054E000047B704700E100E000ED00E080B489B08B
:1054F00000AFF860B9607A60FB6803F00703FB61F6
:10550000FB69C3F10703042B28BF0423BB61FB69BC
:105510000433062B02D9FB69033B00E000237B61C7
:105520004FF0FF32BB6902FA03F3DA43BB681A405B
:105530007B699A404FF0FF317B6901FA03F3D9434D
:105540007B680B40134318462437BD465DF8047B47
:105550007047000080B582B000AF78607B68013B87
:10556000B3F1807F01D301230FE00A4A7B68013B3E
:1055700053600F214FF0FF30FFF78EFF054B0022E5
:105580009A60044B07221A60002318460837BD466C
:1055900080BD00BF10E000E080B582B000AF786051
:1055A0007868FFF705FF00BF0837BD4680BD80B5AE
:1055B00086B000AF0346B9607A60FB7300237B615D
:1055C000FFF71AFF78617A68B9687869FFF78EFF8C
:1055D000024697F90F3011461846FFF75DFF00BFEE
:1055E0001837BD4680BD80B582B000AF0346FB7161
:1055F00097F907301846FFF70DFF00BF0837BD4683
:1056000080BD80B582B000AF0346FB7197F90730CB
:105610001846FFF71DFF00BF0837BD4680BD80B5A7
:1056200082B000AF78607868FFF794FF03461846B1
:105630000837BD4680BD000080B586B000AF7860F9
:1056400000237B61FFF784FE38617B68002B01D16A
:10565000012399E07B68022283F835207B680022D1
:1056600083F834207B681B681A687B681B6822F00B
:1056700001021A600FE0FFF76BFE02463B69D31A86
:10568000052B08D97B6820225A657B68032283F8A2
:105690003520032378E07B681B681B6803F0010357
:1056A000002BE8D17B681B681B687B617A69384BEB
:1056B00013407B617B685A687B689B681A437B68F0
:1056C000DB681A437B681B691A437B685B691A4372
:1056D0007B689B691A437B68DB691A437B681B6A9A
:1056E00013437A6913437B617B685B6A042B07D1A0
:1056F0007B68DA6A7B681B6B13437A6913437B61AF
:105700007B681B687A691A607B681B685B697B61D0
:105710007B6923F007037B617B685B6A7A691343CB
:105720007B617B685B6A042B17D17B689B6A7A6913
:1057300013437B617B68DB6A002B0ED0786800F036
:10574000E7FA0346002B08D07B6840225A657B6845
:10575000012283F83520012316E07B681B687A69F3
:105760005A61786800F09EFA0346FB607B68DB6D47
:105770003F229A40FB689A607B6800225A657B68EA
:10578000012283F83520002318461837BD4680BD16
:105790003F8010F080B584B000AF78607B68002B4C
:1057A00001D1012350E07B6893F83530DBB2022B46
:1057B00001D1022348E07B681B681A687B681B687C
:1057C00022F001021A607B681B6800221A607B6865
:1057D0001B6800225A607B681B6800229A607B6805
:1057E0001B680022DA607B681B6800221A617B68F4
:1057F0001B6821225A61786800F054FA0346FB6066
:105800007B680022DA637B6800221A647B680022CE
:105810005A647B6800229A647B680022DA647B68A1
:1058200000221A657B68DB6D3F229A40FB689A6014
:105830007B6800225A657B68002283F835207B68EC
:10584000002283F83420002318461037BD4680BD5F
:1058500080B584B000AF78607B689B6DFB60FFF71C
:1058600077FDB8607B6893F83530DBB2022B08D047
:105870007B6880225A657B68002283F834200123EC
:1058800052E07B681B681A687B681B6822F016026E
:105890001A607B681B685A697B681B6822F080026B
:1058A0005A617B681B6C002B03D17B689B6C002BBF
:1058B00007D07B681B681A687B681B6822F00802A7
:1058C0001A607B681B681A687B681B6822F00102FB
:1058D0001A6013E0FFF73CFD0246BB68D31A052BA4
:1058E0000CD97B6820225A657B68032283F8352017
:1058F0007B68002283F83420032315E07B681B6853
:105900001B6803F00103002BE4D17B68DB6D3F22B1
:105910009A40FB689A607B68012283F835207B6897
:10592000002283F83420002318461037BD4680BD7E
:1059300080B483B000AF78607B6893F83530DBB219
:10594000022B04D07B6880225A6501230CE07B681F
:10595000052283F835207B681B681A687B681B6802
:1059600022F001021A60002318460C37BD465DF88C
:10597000047B704780B586B000AF78600023BB60C1
:105980008E4B1B688E4AA2FB03239B0A7B617B68BC
:105990009B6D3B613B691B68FB607B68DB6D08228C
:1059A0009A40FB681340002B1AD07B681B681B6869
:1059B00003F00403002B13D07B681B681A687B6814
:1059C0001B6822F004021A607B68DB6D08229A4093
:1059D0003B699A607B685B6D43F001027B685A65A6
:1059E0007B68DB6D01229A40FB681340002B12D0CC
:1059F0007B681B685B6903F08003002B0BD07B681E
:105A0000DB6D01229A403B699A607B685B6D43F0D5
:105A100002027B685A657B68DB6D04229A40FB6852
:105A20001340002B12D07B681B681B6803F0020335
:105A3000002B0BD07B68DB6D04229A403B699A6097
:105A40007B685B6D43F004027B685A657B68DB6DA5
:105A500010229A40FB681340002B43D07B681B68E0
:105A60001B6803F00803002B3CD07B68DB6D102221
:105A70009A403B699A607B681B681B6803F480232B
:105A8000002B18D07B681B681B6803F40023002BD5
:105A900008D17B681B6C002B24D07B681B6C78685A
:105AA00098471FE07B689B6C002B1BD07B689B6C2E
:105AB0007868984716E07B681B681B6803F480735E
:105AC000002B07D17B681B681A687B681B6822F073
:105AD00008021A607B681B6C002B03D07B681B6C70
